:100000000C9464000C9483000C9483000C94830083
:100010000C9483000C9483000C9483000C94830054
:100020000C9483000C9483000C9483000C94830044
:100030000C9483000C9483000C9483000C94830034
:100040000C9483000C9483000C9483000C94830024
:100050000C9483000C9483000C9483000C94830014
:100060000C9483000C9483000C9483000C94830004
:100070000C9483000C9483000C9483000C948300F4
:100080000C9483000C9483000C948300C800CF0070
:10009000FF00E7002F0117015F0147018F01770182
:1000A000BF01A701EF01D70107023A023F024A024E
:1000B00044025602500262025C026E0268027A0238
:1000C00074028B028002860211241FBECFEFD0E49F
:1000D000DEBFCDBF11E0A0E0B1E0EEE6F5E000E06C
:1000E0000BBF02C007900D92AE30B107D9F721E0E7
:1000F000AEE0B1E001C01D92A031B207E1F70E946D
:100100008F020C94B5020C940000CF93DF9300D0C3
:100110001F92CDB7DEB789837B836A8389818A305A
:1001200031F48A819B81BC018DE00E94850080ECC6
:1001300090E0FC018081882F90E080729927892BC4
:10014000B1F386EC90E02981FC01208380E090E00F
:100150000F900F900F90DF91CF910895CF93DF9381
:10016000CDB7DEB780910E0190910F01CC01A0E0D8
:10017000B0E040E050E02EE030E0841B950B281703
:10018000390708F45CC18A5B9F4FFC010C94AC02F8
:1001900081E090E090930F0180930E0155C180E2C1
:1001A00090E0FC018081882F90E081709927892B55
:1001B00039F483E090E090930F0180930E0144C1E5
:1001C00081E090E090930F0180930E013DC180E2A9
:1001D00090E0FC018081882F90E081709927892B25
:1001E00039F483E090E090930F0180930E012CC1CD
:1001F00082E090E090930F0180930E0125C180E290
:1002000090E0FC018081882F90E081709927892BF4
:1002100039F485E090E090930F0180930E0114C1B2
:1002200082E090E090930F0180930E010DC180E277
:1002300090E0FC018081882F90E081709927892BC4
:1002400039F485E090E090930F0180930E01FCC09B
:1002500084E090E090930F0180930E01F5C080E25E
:1002600090E0FC018081882F90E081709927892B94
:1002700039F487E090E090930F0180930E01E4C081
:1002800084E090E090930F0180930E01DDC080E246
:1002900090E0FC018081882F90E081709927892B64
:1002A00039F487E090E090930F0180930E01CCC069
:1002B00086E090E090930F0180930E01C5C080E22C
:1002C00090E0FC018081882F90E081709927892B34
:1002D00039F489E090E090930F0180930E01B4C04F
:1002E00086E090E090930F0180930E01ADC080E214
:1002F00090E0FC018081882F90E081709927892B04
:1003000039F489E090E090930F0180930E019CC036
:1003100088E090E090930F0180930E0195C080E2F9
:1003200090E0FC018081882F90E081709927892BD3
:1003300039F48BE090E090930F0180930E0184C01C
:1003400088E090E090930F0180930E017DC080E2E1
:1003500090E0FC018081882F90E081709927892BA3
:1003600039F48BE090E090930F0180930E016CC004
:100370008AE090E090930F0180930E0165C080E2C7
:1003800090E0FC018081882F90E081709927892B73
:1003900039F48DE090E090930F0180930E0154C0EA
:1003A0008AE090E090930F0180930E014DC080E2AF
:1003B00090E0FC018081882F90E081709927892B43
:1003C00039F48DE090E090930F0180930E013CC0D2
:1003D0008CE090E090930F0180930E0135C080E295
:1003E00090E0FC018081882F90E081709927892B13
:1003F00039F48EE090E090930F0180930E0124C0B9
:100400008CE090E090930F0180930E011DC080E27C
:1004100090E0FC018081882F90E081709927892BE2
:1004200039F48EE090E090930F0180930E010CC0A0
:1004300081E090E090930F0180930E0105C085E26A
:1004400090E0FC011082000080910E0190910F015C
:10045000CC01A0E0B0E040E050E02EE030E0841BB2
:10046000950B2817390708F456C08B5A9F4FFC018B
:100470000C94AC0285E290E0FC0110824CC085E255
:1004800090E0FC01108247C085E290E021E0FC0191
:10049000208341C085E290E021E0FC0120833BC045
:1004A00085E290E022E0FC01208335C085E290E007
:1004B00022E0FC0120832FC085E290E024E0FC01D3
:1004C000208329C085E290E024E0FC01208323C042
:1004D00085E290E028E0FC0120831DC085E290E0E9
:1004E00028E0FC01208317C085E290E020E1FC01B8
:1004F000208311C085E290E020E1FC0120830BC045
:1005000085E290E020E2FC01208305C085E290E0D6
:10051000FC01108200000000DF91CF910895CF937D
:10052000DF93CDB7DEB781E290E0FC01108282E27A
:1005300090E02FEFFC01208384E290E02FEFFC019C
:10054000208385E290E0FC01108210920F0110924E
:100550000E010E94AE00FDCFEE0FFF1F0024001C15
:0E0560000BBE0790F691E02D0994F894FFCFA2
:0E056E000000000200000000850000000000F8
:00000001FF
